:1000000010C017C016C015C014C013C012C011C054
:1000100010C00FC00EC00DC00CC00BC00AC009C07C
:1000200008C011241FBECFE5D1E0DEBFCDBF02D096
:1000300028C0E6CFD79ABA9AD598CD9912C087E949
:100040009AE30197F1F700C00000CD990AC0C29869
:10005000DF988FE493EC0197F1F700C00000DF9A7E
:1000600009C0DF98C2988FE493EC0197F1F700C0C4
:100070000000C29A8FE493EC0197F1F700C00000F2
:06008000DCCFF894FFCF75
:00000001FF
