:1000000010C017C016C015C014C013C013C011C053
:1000100010C00FC00EC00DC00CC00BC00AC009C07C
:1000200008C011241FBECFE5D1E0DEBFCDBF17D081
:1000300027C0E6CF1F920F920FB60F9211248F9315
:100040009F9398B384E0892788BB8BB380588BBB80
:100050009F918F910F900FBE0F901F901895D79A78
:10006000BA9AD5988EB588608EBD619A789484E6E8
:1000700090E09BBD8ABD8EB585608EBD7894FFCF24
:04008000F894FFCF22
:00000001FF
