:1000000010C01FC01FC01DC01CC01BC01AC019C01B
:1000100018C017C016C015C014C013C012C011C03C
:1000200010C011241FBECFE5D1E0DEBFCDBF20E060
:10003000A0E6B0E001C01D92A236B207E1F72AD0D7
:1000400043C0DECF1F920F920FB60F9211248F93F1
:100050009F9381E090E090936100809360009F9176
:100060008F910F900FBE0F901F901895CD9B0BC0D6
:10007000C29A2FEF88E09DE3215080409040E1F745
:1000800000C00000C29808958BB780618BBF959A1D
:1000900078940895D79ABA9AD598DF9AF5DF809127
:1000A000600090916100892B29F0E0DF10926100DF
:1000B000109260002FEF88E09DE321508040904037
:0C00C000E1F700C00000EBCFF894FFCF88
:00000001FF
